:100000000C942A000C943F000C943F000C943F0089
:100010000C943F000C943F000C943F000C943F0064
:100020000C943F000C943F000C943F000C943F0054
:100030000C943F000C943F000C943F000C943F0044
:100040000C943F000C943F000C943F000C943F0034
:100050000C943F0011241FBECFE5D8E0DEBFCDBF1A
:1000600010E0A0E6B0E0E0EAF3E002C005900D92F7
:10007000A238B107D9F70E9494010C94CE010C94D8
:10008000000095B39F7795BB82BB85B3806485BB29
:1000900000C000C0000085B38F7B85BB83EF91E07B
:1000A0000197F1F700C0000008958FEF81BB84B382
:1000B000806C84BB87EA91E60197F1F700C00000ED
:1000C00080E30E94410080E30E94410080E30E949F
:1000D000410088E30E9441008EE00E94410086E0DA
:1000E0000E94410081E00E944100089595B390680C
:1000F00095BB82BB85B3806485BB00C000C0000097
:1001000085B38F7B85BB83EF91E00197F1F700C04A
:1001100000000895CF93DF93EC0103C021960E9465
:10012000760088818111FACFDF91CF910895FC018B
:10013000CB0199233CF42DE220839195819591097F
:1001400041503196242F30E0DF01A20FB31F215020
:100150003109E20FF31F1C9220E030E012C01816A4
:10016000190654F46AE070E00E94A601805D808365
:10017000862F972F319703C050E3508331972F5F1D
:100180003F4F642F70E0261737074CF308950F9305
:100190001F93CF93DF93CDB7DEB760970FB6F89478
:1001A000DEBF0FBECDBF8C0180E80E944100C801B8
:1001B000C796853B910598F444E0B801CE010196BD
:1001C0000E94970080E690E00E948A00CE0101968E
:1001D0000E948A0086E690E00E948A0004C089E6B8
:1001E00090E00E948A0060960FB6F894DEBF0FBEC2
:1001F000CDBFDF91CF911F910F9108958AB3816098
:100200008ABB80EA8A95F1F78AB38E7F8ABB94E134
:100210009A95F1F789B381709CE89A95F1F7089562
:100220009AB391609ABB0000882319F08AB38E7F3D
:100230008ABB84E18A95F1F78AB38E7F8ABB0895E1
:100240008AB381608ABB00008AB38E7F8ABB84E058
:100250008A95F1F700C0C89902C080E001C081E032
:100260009FE09A95F1F70895CF93DF93D82FC0E0E0
:1002700006C08D2F81700E941001D695CF5FC830C7
:10028000C0F3DF91CF910895CF93DF93C0E0D0E02A
:1002900006C0D6950E9420018111D068CF5FC8307A
:1002A000C0F38D2FDF91CF910895CF930E94FE0070
:1002B000882339F084E790E00E948A008FEF9FEF57
:1002C00031C08CEC0E94340184E40E9434010E940D
:1002D00020018823E1F30E94FE00882339F084E79F
:1002E00090E00E948A008FEF9FEF1CC08CEC0E9470
:1002F00034018EEB0E9434010E944401C82F0E94F9
:100300004401282F30E0322F22272C2BC9019923BA
:100310000CF40F9695958795959587959595879566
:1003200095958795CF9108950E9455000E9455019B
:1003300060E070E00E94C7002FE38DE093E0215061
:1003400080409040E1F700C00000F0CF97FB072EFF
:1003500016F4009407D077FD09D00E94BA0107FC7B
:1003600005D03EF4909581959F4F089570956195C5
:100370007F4F0895AA1BBB1B51E107C0AA1FBB1FDB
:10038000A617B70710F0A61BB70B881F991F5A9521
:10039000A9F780959095BC01CD010895F894FFCF01
:1003A00054656D703A005F430054656D703A457254
:1003B000726F720044533138423230204572726F8E
:0203C0007200C9
:00000001FF
